{
  "contractName": "Adoption",
  "abi": [
    {
      "constant": false,
      "inputs": [],
      "name": "getAdopters",
      "outputs": [
        {
          "name": "",
          "type": "address[16]"
        }
      ],
      "payable": false,
      "stateMutability": "nonpayable",
      "type": "function"
    },
    {
      "constant": true,
      "inputs": [
        {
          "name": "",
          "type": "uint256"
        }
      ],
      "name": "adopters",
      "outputs": [
        {
          "name": "",
          "type": "address"
        }
      ],
      "payable": false,
      "stateMutability": "view",
      "type": "function"
    },
    {
      "constant": false,
      "inputs": [
        {
          "name": "petId",
          "type": "uint256"
        }
      ],
      "name": "adopt",
      "outputs": [
        {
          "name": "",
          "type": "uint256"
        }
      ],
      "payable": false,
      "stateMutability": "nonpayable",
      "type": "function"
    },
    {
      "constant": false,
      "inputs": [],
      "name": "getToto",
      "outputs": [
        {
          "name": "",
          "type": "address[16]"
        }
      ],
      "payable": false,
      "stateMutability": "nonpayable",
      "type": "function"
    },
    {
      "inputs": [],
      "payable": false,
      "stateMutability": "nonpayable",
      "type": "constructor"
    }
  ],
  "bytecode": "0x6060604052341561000f57600080fd5b336000806101000a81548173ffffffffffffffffffffffffffffffffffffffff021916908373ffffffffffffffffffffffffffffffffffffffff1602179055506103ba8061005e6000396000f300606060405260043610610062576000357c0100000000000000000000000000000000000000000000000000000000900463ffffffff1680633de4eb171461006757806343ae80d3146100b85780638588b2c51461011b578063e655838714610152575b600080fd5b341561007257600080fd5b61007a6101a3565b6040518082601060200280838360005b838110156100a557808201518184015260208101905061008a565b5050505090500191505060405180910390f35b34156100c357600080fd5b6100d96004808035906020019091905050610224565b604051808273ffffffffffffffffffffffffffffffffffffffff1673ffffffffffffffffffffffffffffffffffffffff16815260200191505060405180910390f35b341561012657600080fd5b61013c6004808035906020019091905050610259565b6040518082815260200191505060405180910390f35b341561015d57600080fd5b6101656102ce565b6040518082601060200280838360005b83811015610190578082015181840152602081019050610175565b5050505090500191505060405180910390f35b6101ab61034f565b600360108060200260405190810160405280929190826010801561021a576020028201915b8160009054906101000a900473ffffffffffffffffffffffffffffffffffffffff1673ffffffffffffffffffffffffffffffffffffffff16815260200190600101908083116101d0575b5050505050905090565b60038160108110151561023357fe5b016000915054906101000a900473ffffffffffffffffffffffffffffffffffffffff1681565b600080821015801561026c5750600f8211155b151561027757600080fd5b3360038360108110151561028757fe5b0160006101000a81548173ffffffffffffffffffffffffffffffffffffffff021916908373ffffffffffffffffffffffffffffffffffffffff160217905550819050919050565b6102d661034f565b6003601080602002604051908101604052809291908260108015610345576020028201915b8160009054906101000a900473ffffffffffffffffffffffffffffffffffffffff1673ffffffffffffffffffffffffffffffffffffffff16815260200190600101908083116102fb575b5050505050905090565b610200604051908101604052806010905b600073ffffffffffffffffffffffffffffffffffffffff1681526020019060019003908161036057905050905600a165627a7a7230582006e62471b976b92a99d057d722df6a30560e64b29e4adea16831f6737d13e8c50029",
  "source": "pragma solidity ^0.4.4;\n\ncontract Adoption {\n  address voter;\n  mapping (address => int) tickets;\n  mapping (uint => int) total;\n  address[16] public adopters;\n  function Adoption(){\n    voter = msg.sender;\n  }\n  // Adopting a pet\n  function adopt(uint petId) public returns (uint) {\n    require(petId >= 0 && petId <= 15);\n    adopters[petId] = msg.sender;\n    //tickets[msg.sender] -= 60;\n    //total[petId] = 0;\n    return petId;\n  }\n\n  // ABC\n  function getToto() public returns (address[16]) {\n    return adopters;\n    }\n\n  // Retrieving the adopters\n  function getAdopters() public returns (address[16]) {\n    return adopters;\n    }\n}\n",
  "sourcePath": "/Users/kshih/ethereum/Dapp/contracts/Adoption.sol",
  "compiler": {
    "name": "solc",
    "version": "0.4.18+commit.9cf6e910.Emscripten.clang"
  },
  "schemaVersion": "1.0.1",
  "updatedAt": "2018-01-11T14:37:59.197Z"
}