{
  "contractName": "Adoption",
  "abi": [
    {
      "constant": false,
      "inputs": [],
      "name": "getAdopters",
      "outputs": [
        {
          "name": "",
          "type": "address[16]"
        }
      ],
      "payable": false,
      "stateMutability": "nonpayable",
      "type": "function"
    },
    {
      "constant": true,
      "inputs": [
        {
          "name": "",
          "type": "uint256"
        }
      ],
      "name": "adopters",
      "outputs": [
        {
          "name": "",
          "type": "address"
        }
      ],
      "payable": false,
      "stateMutability": "view",
      "type": "function"
    },
    {
      "constant": false,
      "inputs": [
        {
          "name": "petId",
          "type": "uint256"
        }
      ],
      "name": "adopt",
      "outputs": [
        {
          "name": "",
          "type": "uint256"
        }
      ],
      "payable": false,
      "stateMutability": "nonpayable",
      "type": "function"
    },
    {
      "constant": false,
      "inputs": [],
      "name": "getToto",
      "outputs": [
        {
          "name": "",
          "type": "int256"
        }
      ],
      "payable": false,
      "stateMutability": "nonpayable",
      "type": "function"
    },
    {
      "inputs": [],
      "payable": false,
      "stateMutability": "nonpayable",
      "type": "constructor"
    }
  ],
  "bytecode": "0x6060604052341561000f57600080fd5b336000806101000a81548173ffffffffffffffffffffffffffffffffffffffff021916908373ffffffffffffffffffffffffffffffffffffffff1602179055506103338061005e6000396000f300606060405260043610610062576000357c0100000000000000000000000000000000000000000000000000000000900463ffffffff1680633de4eb171461006757806343ae80d3146100b85780638588b2c51461011b578063e655838714610152575b600080fd5b341561007257600080fd5b61007a61017b565b6040518082601060200280838360005b838110156100a557808201518184015260208101905061008a565b5050505090500191505060405180910390f35b34156100c357600080fd5b6100d960048080359060200190919050506101fc565b604051808273ffffffffffffffffffffffffffffffffffffffff1673ffffffffffffffffffffffffffffffffffffffff16815260200191505060405180910390f35b341561012657600080fd5b61013c6004808035906020019091905050610231565b6040518082815260200191505060405180910390f35b341561015d57600080fd5b6101656102bf565b6040518082815260200191505060405180910390f35b6101836102c8565b60036010806020026040519081016040528092919082601080156101f2576020028201915b8160009054906101000a900473ffffffffffffffffffffffffffffffffffffffff1673ffffffffffffffffffffffffffffffffffffffff16815260200190600101908083116101a8575b5050505050905090565b60038160108110151561020b57fe5b016000915054906101000a900473ffffffffffffffffffffffffffffffffffffffff1681565b60008082101580156102445750600f8211155b151561024f57600080fd5b3360038360108110151561025f57fe5b0160006101000a81548173ffffffffffffffffffffffffffffffffffffffff021916908373ffffffffffffffffffffffffffffffffffffffff16021790555060006002600084815260200190815260200160002081905550819050919050565b60006035905090565b610200604051908101604052806010905b600073ffffffffffffffffffffffffffffffffffffffff168152602001906001900390816102d957905050905600a165627a7a72305820c52ba5d44aa1331206976a33bc05e87fe7cfb552731d22582c9c483e4692ad180029",
  "source": "pragma solidity ^0.4.4;\n\ncontract Adoption {\n  address voter;\n  mapping (address => int) tickets;\n  mapping (uint => int) total;\n  address[16] public adopters;\n  function Adoption(){\n    voter = msg.sender;\n  }\n  // Adopting a pet\n  function adopt(uint petId) public returns (uint) {\n    require(petId >= 0 && petId <= 15);\n    adopters[petId] = msg.sender;\n    //tickets[msg.sender] -= 60;\n    total[petId] = 0;\n    return petId;\n  }\n\n  // ABC\n  function getToto() public returns (int) {\n    //return total[petId];\n    return 53;\n    }\n\n  // Retrieving the adopters\n  function getAdopters() public returns (address[16]) {\n    return adopters;\n    }\n}\n",
  "sourcePath": "/Users/kshih/ethereum/Dapp/contracts/Adoption.sol",
  "compiler": {
    "name": "solc",
    "version": "0.4.18+commit.9cf6e910.Emscripten.clang"
  },
  "schemaVersion": "1.0.1",
  "updatedAt": "2018-01-13T14:15:49.297Z"
}