{
  "contractName": "Vote",
  "abi": [
    {
      "constant": true,
      "inputs": [
        {
          "name": "",
          "type": "uint256"
        }
      ],
      "name": "candidates",
      "outputs": [
        {
          "name": "voteCount",
          "type": "uint256"
        }
      ],
      "payable": false,
      "stateMutability": "view",
      "type": "function"
    },
    {
      "constant": false,
      "inputs": [
        {
          "name": "candidateIndex",
          "type": "uint256"
        }
      ],
      "name": "voteCandidate",
      "outputs": [],
      "payable": false,
      "stateMutability": "nonpayable",
      "type": "function"
    },
    {
      "constant": true,
      "inputs": [
        {
          "name": "candidateIndex",
          "type": "uint256"
        }
      ],
      "name": "getCurrentVote",
      "outputs": [
        {
          "name": "",
          "type": "uint256"
        }
      ],
      "payable": false,
      "stateMutability": "view",
      "type": "function"
    },
    {
      "inputs": [],
      "payable": false,
      "stateMutability": "nonpayable",
      "type": "constructor"
    }
  ],
  "bytecode": "0x6060604052341561000f57600080fd5b60008090505b600381101561006d57600080548060010182816100329190610073565b916000526020600020900160006020604051908101604052806000815250909190915060008201518160000155505050806001019050610015565b506100c6565b81548183558181151161009a57818360005260206000209182019101610099919061009f565b5b505050565b6100c391905b808211156100bf57600080820160009055506001016100a5565b5090565b90565b610198806100d56000396000f300606060405260043610610057576000357c0100000000000000000000000000000000000000000000000000000000900463ffffffff1680633477ee2e1461005c5780638c08a4dc14610093578063951c4ca5146100b6575b600080fd5b341561006757600080fd5b61007d60048080359060200190919050506100ed565b6040518082815260200191505060405180910390f35b341561009e57600080fd5b6100b46004808035906020019091905050610117565b005b34156100c157600080fd5b6100d76004808035906020019091905050610146565b6040518082815260200191505060405180910390f35b6000818154811015156100fc57fe5b90600052602060002090016000915090508060000154905081565b600160008281548110151561012857fe5b90600052602060002090016000016000828254019250508190555050565b6000808281548110151561015657fe5b90600052602060002090016000015490509190505600a165627a7a7230582076d7be22e755eb05a88951744007c131901edf952e6b510d8aedad42918db9290029",
  "source": "pragma solidity ^0.4.16;\r\n\r\ncontract Vote {\r\n  struct Candidate {\r\n    uint voteCount;\r\n  }\r\n  \r\n  Candidate[] public candidates;\r\n  \r\n  function Vote() public {\r\n    for (uint i = 0; i < 3; ++i) {\r\n      candidates.push(Candidate({ voteCount: 0 }));\r\n    }\r\n  }\r\n  \r\n  function getCurrentVote(uint candidateIndex) public constant returns (uint) {\r\n    return candidates[candidateIndex].voteCount;\r\n  }\r\n  \r\n  function voteCandidate(uint candidateIndex) public {\r\n    candidates[candidateIndex].voteCount += 1;\r\n  }\r\n}",
  "sourcePath": "C:\\Users\\小坤\\Documents\\GitHub\\ElectricVote\\contracts\\Vote.sol",
  "compiler": {
    "name": "solc",
    "version": "0.4.18+commit.9cf6e910.Emscripten.clang"
  },
  "schemaVersion": "1.0.1",
  "updatedAt": "2018-01-16T15:16:55.707Z"
}